{
  "contractName": "Amazoff",
  "abi": [
    {
      "inputs": [],
      "payable": false,
      "stateMutability": "nonpayable",
      "type": "constructor"
    },
    {
      "constant": true,
      "inputs": [],
      "name": "getBalance",
      "outputs": [
        {
          "internalType": "uint256",
          "name": "",
          "type": "uint256"
        }
      ],
      "payable": false,
      "stateMutability": "view",
      "type": "function"
    },
    {
      "constant": true,
      "inputs": [],
      "name": "getNow",
      "outputs": [
        {
          "internalType": "uint256",
          "name": "",
          "type": "uint256"
        }
      ],
      "payable": false,
      "stateMutability": "view",
      "type": "function"
    },
    {
      "constant": false,
      "inputs": [
        {
          "internalType": "uint256",
          "name": "timestamp",
          "type": "uint256"
        },
        {
          "internalType": "uint256",
          "name": "cassaforte",
          "type": "uint256"
        }
      ],
      "name": "setBlackFriday",
      "outputs": [],
      "payable": false,
      "stateMutability": "nonpayable",
      "type": "function"
    },
    {
      "constant": false,
      "inputs": [
        {
          "internalType": "uint256",
          "name": "cassaforte",
          "type": "uint256"
        }
      ],
      "name": "deposit",
      "outputs": [],
      "payable": true,
      "stateMutability": "payable",
      "type": "function"
    },
    {
      "constant": false,
      "inputs": [
        {
          "internalType": "uint256",
          "name": "cassaforte",
          "type": "uint256"
        }
      ],
      "name": "withdraw",
      "outputs": [],
      "payable": false,
      "stateMutability": "nonpayable",
      "type": "function"
    }
  ],
  "bytecode": "0x608060405234801561001057600080fd5b50336000806101000a81548173ffffffffffffffffffffffffffffffffffffffff021916908373ffffffffffffffffffffffffffffffffffffffff16021790555060006004819055506105e0806100686000396000f3fe60806040526004361061004a5760003560e01c806312065fe01461004f5780632e1a7d4d1461007a57806343633d35146100b5578063b6b55f25146100fa578063bbe4fd5014610128575b600080fd5b34801561005b57600080fd5b50610064610153565b6040518082815260200191505060405180910390f35b34801561008657600080fd5b506100b36004803603602081101561009d57600080fd5b810190808035906020019092919050505061015d565b005b3480156100c157600080fd5b506100f8600480360360408110156100d857600080fd5b810190808035906020019092919080359060200190929190505050610359565b005b6101266004803603602081101561011057600080fd5b81019080803590602001909291905050506104ad565b005b34801561013457600080fd5b5061013d6105a3565b6040518082815260200191505060405180910390f35b6000600454905090565b3373ffffffffffffffffffffffffffffffffffffffff166003600083815260200190815260200160002060009054906101000a900473ffffffffffffffffffffffffffffffffffffffff1673ffffffffffffffffffffffffffffffffffffffff1614610231576040517f08c379a00000000000000000000000000000000000000000000000000000000081526004018080602001828103825260078152602001807f6e6f6e207475610000000000000000000000000000000000000000000000000081525060200191505060405180910390fd5b426002600083815260200190815260200160002054106102b9576040517f08c379a000000000000000000000000000000000000000000000000000000000815260040180806020018281038252600d8152602001807f6361737361666f72746520626c0000000000000000000000000000000000000081525060200191505060405180910390fd5b600060016000838152602001908152602001600020549050600060016000848152602001908152602001600020819055503373ffffffffffffffffffffffffffffffffffffffff166108fc829081150290604051600060405180830381858888f19350505050158015610330573d6000803e3d6000fd5b508060045403600481905550600060026000848152602001908152602001600020819055505050565b3373ffffffffffffffffffffffffffffffffffffffff166003600083815260200190815260200160002060009054906101000a900473ffffffffffffffffffffffffffffffffffffffff1673ffffffffffffffffffffffffffffffffffffffff161461042d576040517f08c379a00000000000000000000000000000000000000000000000000000000081526004018080602001828103825260058152602001807f6572726f7200000000000000000000000000000000000000000000000000000081525060200191505060405180910390fd5b6000600260008381526020019081526020016000205414610491576040517f08c379a0000000000000000000000000000000000000000000000000000000008152600401808060200182810382526000815260200160200191505060405180910390fd5b8160026000838152602001908152602001600020819055505050565b600073ffffffffffffffffffffffffffffffffffffffff166003600083815260200190815260200160002060009054906101000a900473ffffffffffffffffffffffffffffffffffffffff1673ffffffffffffffffffffffffffffffffffffffff16141561056857336003600083815260200190815260200160002060006101000a81548173ffffffffffffffffffffffffffffffffffffffff021916908373ffffffffffffffffffffffffffffffffffffffff1602179055505b346001600083815260200190815260200160002054016001600083815260200190815260200160002081905550346004540160048190555050565b60004290509056fea265627a7a7231582057ba212707ec251765c092bdc55479ae5b570b5430911939dc27febaecd5bacc64736f6c63430005100032",
  "source": "pragma solidity >=0.4.21 <0.7.0;\r\n\r\n\r\ncontract Amazoff {\r\n    address owner;\r\n    mapping(uint256 => uint256) deposits;\r\n    mapping(uint256 => uint256) times;\r\n    mapping(uint256 => address) cassaforti;\r\n    \r\n    uint256 bal;\r\n\r\n    modifier byOwner {\r\n        require(msg.sender == owner, \"Not allowed\");\r\n        _;\r\n    }\r\n    constructor() public {\r\n        owner = msg.sender;\r\n        bal = 0;\r\n    }\r\n    function getBalance() public view returns (uint256) {\r\n        return bal;\r\n    }\r\n    function getNow() public view returns(uint256){\r\n        return now;\r\n    }\r\n\r\n    function setBlackFriday(uint256 timestamp, uint256 cassaforte) public  {\r\n        require(cassaforti[cassaforte] == msg.sender, \"error\");\r\n        require(times[cassaforte] == 0, \"\");\r\n        times[cassaforte] = timestamp;\r\n    }\r\n\r\n    function deposit(uint256 cassaforte) public payable {\r\n        if (cassaforti[cassaforte] == address(0)) {\r\n            cassaforti[cassaforte] = msg.sender;\r\n        }\r\n        deposits[cassaforte] = deposits[cassaforte] + msg.value;\r\n        bal = bal + msg.value;\r\n    }\r\n\r\n    function withdraw(uint256 cassaforte) public  {\r\n        require(cassaforti[cassaforte] == msg.sender, \"non tua\");\r\n        require(times[cassaforte] < now, \"cassaforte bl\");\r\n        uint256 value = deposits[cassaforte];\r\n        deposits[cassaforte] = 0;\r\n        msg.sender.transfer(value);\r\n        bal = bal - value;\r\n        times[cassaforte] = 0;\r\n    }\r\n}\r\n",
  "sourcePath": "C:\\Users\\Lord Virus\\Desktop\\AMAPROV\\contracts\\Amazoff.sol",
  "compiler": {
    "name": "solc",
    "version": "0.5.16+commit.9c3226ce.Emscripten.clang"
  },
  "schemaVersion": "3.1.0",
  "updatedAt": "2020-06-04T07:25:42.539Z",
  "devdoc": {
    "methods": {}
  },
  "userdoc": {
    "methods": {}
  }
}