{
  "contractName": "Amazoff",
  "abi": [
    {
      "inputs": [],
      "payable": false,
      "stateMutability": "nonpayable",
      "type": "constructor"
    },
    {
      "constant": true,
      "inputs": [],
      "name": "blackFridayEndDate",
      "outputs": [
        {
          "internalType": "uint256",
          "name": "",
          "type": "uint256"
        }
      ],
      "payable": false,
      "stateMutability": "view",
      "type": "function"
    },
    {
      "constant": true,
      "inputs": [],
      "name": "getBalance",
      "outputs": [
        {
          "internalType": "uint256",
          "name": "",
          "type": "uint256"
        }
      ],
      "payable": false,
      "stateMutability": "view",
      "type": "function"
    },
    {
      "constant": false,
      "inputs": [
        {
          "internalType": "uint256",
          "name": "timestamp",
          "type": "uint256"
        }
      ],
      "name": "setBlackFriday",
      "outputs": [],
      "payable": false,
      "stateMutability": "nonpayable",
      "type": "function"
    },
    {
      "constant": false,
      "inputs": [
        {
          "internalType": "uint256",
          "name": "amt",
          "type": "uint256"
        }
      ],
      "name": "deposit",
      "outputs": [],
      "payable": true,
      "stateMutability": "payable",
      "type": "function"
    },
    {
      "constant": false,
      "inputs": [
        {
          "internalType": "uint256",
          "name": "amt",
          "type": "uint256"
        }
      ],
      "name": "withdraw",
      "outputs": [],
      "payable": false,
      "stateMutability": "nonpayable",
      "type": "function"
    }
  ],
  "bytecode": "0x608060405234801561001057600080fd5b50336000806101000a81548173ffffffffffffffffffffffffffffffffffffffff021916908373ffffffffffffffffffffffffffffffffffffffff16021790555060006003819055506103b7806100686000396000f3fe60806040526004361061004a5760003560e01c806312065fe01461004f5780632e1a7d4d1461007a5780634c1b0730146100b557806359e6d8f7146100e0578063b6b55f251461011b575b600080fd5b34801561005b57600080fd5b50610064610149565b6040518082815260200191505060405180910390f35b34801561008657600080fd5b506100b36004803603602081101561009d57600080fd5b8101908080359060200190929190505050610153565b005b3480156100c157600080fd5b506100ca6102a9565b6040518082815260200191505060405180910390f35b3480156100ec57600080fd5b506101196004803603602081101561010357600080fd5b81019080803590602001909291905050506102af565b005b6101476004803603602081101561013157600080fd5b8101908080359060200190929190505050610330565b005b6000600354905090565b42600254106101ca576040517f08c379a000000000000000000000000000000000000000000000000000000000815260040180806020018281038252601e8152602001807f426c61636b20667269646179206973206e6f742079657420636c6f736564000081525060200191505060405180910390fd5b6000600160003373ffffffffffffffffffffffffffffffffffffffff1673ffffffffffffffffffffffffffffffffffffffff1681526020019081526020016000205490506000600160003373ffffffffffffffffffffffffffffffffffffffff1673ffffffffffffffffffffffffffffffffffffffff168152602001908152602001600020819055503373ffffffffffffffffffffffffffffffffffffffff166108fc829081150290604051600060405180830381858888f19350505050158015610299573d6000803e3d6000fd5b5081600354036003819055505050565b60025481565b4260025410610326576040517f08c379a000000000000000000000000000000000000000000000000000000000815260040180806020018281038252601e8152602001807f426c61636b20667269646179206973206e6f742079657420636c6f736564000081525060200191505060405180910390fd5b8060028190555050565b34600160003373ffffffffffffffffffffffffffffffffffffffff1673ffffffffffffffffffffffffffffffffffffffff1681526020019081526020016000208190555080600354016003819055505056fea265627a7a72315820397b3a62db371e3c28252d15a859a98d21c1b70262d8dfe6cd7de4eb3f1d370064736f6c63430005100032",
  "source": "pragma solidity >=0.4.21 <0.7.0;\n\n\ncontract Amazoff {\n    address owner;\n    mapping(address => uint256) deposits;\n    uint256 public blackFridayEndDate;\n    uint256 bal;\n\n    modifier byOwner {\n        require(msg.sender == owner, \"Not allowed\");\n        _;\n    }\n\n    modifier ifBlackFridayClosed {\n        require(blackFridayEndDate < now, \"Black friday is not yet closed\");\n        _;\n    }\n\n    constructor() public {\n        owner = msg.sender;\n        bal = 0;\n    }\n\n    function getBalance() public view returns (uint256) {\n        return bal;\n    }\n\n    function setBlackFriday(uint256 timestamp) public ifBlackFridayClosed {\n        blackFridayEndDate = timestamp;\n    }\n\n    function deposit(uint256 amt) public payable {\n        deposits[msg.sender] = msg.value;\n        bal = bal + amt;\n    }\n\n    function withdraw(uint256 amt) public ifBlackFridayClosed {\n        uint256 value = deposits[msg.sender];\n        deposits[msg.sender] = 0;\n        msg.sender.transfer(value);\n        bal = bal - amt;\n    }\n}\n",
  "sourcePath": "/Users/freia/Desktop/Github/Prototipo_Knobs_funzionante/contracts/Amazoff.sol",
  "compiler": {
    "name": "solc",
    "version": "0.5.16+commit.9c3226ce.Emscripten.clang"
  },
  "schemaVersion": "3.1.0",
  "updatedAt": "2020-06-01T08:46:32.939Z",
  "networkType": "ethereum",
  "devdoc": {
    "methods": {}
  },
  "userdoc": {
    "methods": {}
  }
}