{
  "contractName": "Amazoff",
  "abi": [
    {
      "inputs": [],
      "payable": false,
      "stateMutability": "nonpayable",
      "type": "constructor"
    },
    {
      "constant": true,
      "inputs": [],
      "name": "blackFridayEndDate",
      "outputs": [
        {
          "internalType": "uint256",
          "name": "",
          "type": "uint256"
        }
      ],
      "payable": false,
      "stateMutability": "view",
      "type": "function"
    },
    {
      "constant": false,
      "inputs": [
        {
          "internalType": "uint256",
          "name": "timestamp",
          "type": "uint256"
        }
      ],
      "name": "setBlackFriday",
      "outputs": [],
      "payable": false,
      "stateMutability": "nonpayable",
      "type": "function"
    },
    {
      "constant": false,
      "inputs": [],
      "name": "deposit",
      "outputs": [],
      "payable": true,
      "stateMutability": "payable",
      "type": "function"
    },
    {
      "constant": false,
      "inputs": [],
      "name": "withdraw",
      "outputs": [],
      "payable": false,
      "stateMutability": "nonpayable",
      "type": "function"
    }
  ],
  "bytecode": "0x608060405234801561001057600080fd5b50336000806101000a81548173ffffffffffffffffffffffffffffffffffffffff021916908373ffffffffffffffffffffffffffffffffffffffff1602179055506103cc806100606000396000f3fe60806040526004361061003f5760003560e01c80633ccfd60b146100445780634c1b07301461005b57806359e6d8f714610086578063d0e30db0146100c1575b600080fd5b34801561005057600080fd5b506100596100cb565b005b34801561006757600080fd5b506100706102ca565b6040518082815260200191505060405180910390f35b34801561009257600080fd5b506100bf600480360360208110156100a957600080fd5b81019080803590602001909291905050506102d0565b005b6100c9610351565b005b4260025410610142576040517f08c379a000000000000000000000000000000000000000000000000000000000815260040180806020018281038252601e8152602001807f426c61636b20667269646179206973206e6f742079657420636c6f736564000081525060200191505060405180910390fd5b6000600160003373ffffffffffffffffffffffffffffffffffffffff1673ffffffffffffffffffffffffffffffffffffffff16815260200190815260200160002054116101f7576040517f08c379a000000000000000000000000000000000000000000000000000000000815260040180806020018281038252600d8152602001807f4e6f206d6f7265206d6f6e65790000000000000000000000000000000000000081525060200191505060405180910390fd5b6000600160003373ffffffffffffffffffffffffffffffffffffffff1673ffffffffffffffffffffffffffffffffffffffff1681526020019081526020016000205490506000600160003373ffffffffffffffffffffffffffffffffffffffff1673ffffffffffffffffffffffffffffffffffffffff168152602001908152602001600020819055503373ffffffffffffffffffffffffffffffffffffffff166108fc829081150290604051600060405180830381858888f193505050501580156102c6573d6000803e3d6000fd5b5050565b60025481565b4260025410610347576040517f08c379a000000000000000000000000000000000000000000000000000000000815260040180806020018281038252601e8152602001807f426c61636b20667269646179206973206e6f742079657420636c6f736564000081525060200191505060405180910390fd5b8060028190555050565b34600160003373ffffffffffffffffffffffffffffffffffffffff1673ffffffffffffffffffffffffffffffffffffffff1681526020019081526020016000208190555056fea265627a7a72315820f0f5637dc4dcec7847f917f477b21a15d4ef0beb1de0d3ea89e9623d22f303d764736f6c63430005100032",
  "source": "pragma solidity >=0.4.21 <0.7.0;\n\n\ncontract Amazoff {\n    address owner;\n    mapping(address => uint256) deposits;\n    uint256 public blackFridayEndDate;\n\n    modifier byOwner {\n        require(msg.sender == owner, \"Not allowed\");\n        _;\n    }\n\n    modifier ifBlackFridayClosed {\n        require(blackFridayEndDate < now, \"Black friday is not yet closed\");\n        _;\n    }\n\n    constructor() public {\n        owner = msg.sender;\n    }\n\n    function setBlackFriday(uint256 timestamp) public ifBlackFridayClosed {\n        blackFridayEndDate = timestamp;\n    }\n\n    function deposit() public payable {\n        deposits[msg.sender] = msg.value;\n    }\n\n    function withdraw() public ifBlackFridayClosed {\n        require(deposits[msg.sender] > 0, \"No more money\");\n        uint256 value = deposits[msg.sender];\n        deposits[msg.sender] = 0;\n        msg.sender.transfer(value);\n    }\n}\n",
  "sourcePath": "/Users/freia/Desktop/react DAPP/contracts/Amazoff.sol",
  "compiler": {
    "name": "solc",
    "version": "0.5.16+commit.9c3226ce.Emscripten.clang"
  },
  "schemaVersion": "3.1.0",
  "updatedAt": "2020-05-24T00:27:32.263Z",
  "networkType": "ethereum",
  "devdoc": {
    "methods": {}
  },
  "userdoc": {
    "methods": {}
  }
}